:400000000010002011000000810300008103000008B500F005FC00F0B5F90000F8B572B680220021D2004D4800F03BFF8023DA004B48002100F035FF0022101C4949FF25A9
:4000400054584700261CAE431031E3B2351CC919002B07D00F78013B7E194F78DBB237700231F5E7E4B204320019102AE6D1C0223D4D9104296080203C4F3D4C3D4A3E4DC5
:40008000C10399263E6023603C4F1060C02429603B4A3C49600340263E6010603A4F0B603A4B022531263A4C1D6099203E6039498023394F256002041E06384C0A60802018
:4000C0003E603749374E384B2260384F82050A601E603C78062025433D703D78344A05433D7011688026F3020B43324F324C13603878324E2178171C3578172D05D9304A32
:400100007078B178033E9642F6D12E4B2E4C2F4E1925186021600520356000F031FD2C482C4A01780520116000F0FEFD3C682A4B2A4D23402A483B60202610272F608021BE
:400140000660284F284D294E294A2A4B2A480C0614601C602F600660F8BDC04600300F4000400F40C00E000004000140100001400C00014000000440080004400001044016
:40018000080104400803044008040440000404401804044000500F4004500F4010500F4018500F40100001002001054000700F4000010B40CCF1FF0FCDF1FF0FC9F1FF0F22
:4001C000BDF1FF0F1CFF0B4020FF0B402CFF0B40E5F1FF0F28FF0B40FFFFFBFF08020240200202401000008000000240AF04008008010B4004010B404000024010B5064CBD
:400200002378002B07D10548002802D0044800E000BF0121217010BDF000002000000000BC0E000008B5084B002B03D00748084900E000BF07480168002903D0064A002A19
:4002400000D0904708BDC04600000000BC0E0000F4000020D00000200000000010B562B600F084FC00280ED16524012000F046FD00F07CFC002806D1013CE4B2002CF4D1E2
:40028000034B40221A6000F063FC00F09BFAFEE7C000002008B500F0EDFA00F025FB00F08DFB08BD70B5054B0D1C161C0024C9B21C8000F077FB3580201C70BD0C010020E2
:4002C000F0B50A275F4387B002900591161C00252A4CBD4219DA00F0F5FA80B220802388002B0CD00220278800F008FD00F0EAFA81B221802288BA42F4D8002706E00120F7
:40030000013500F0FBFCADB2E2E7052700253580208800282FD023883088019301994218059993B233808B4221D201982A1893B2049304998D4209D002994819039000F0E7
:40034000A7FA039A01351070ADB2F2E772B62088019A831A99B2218062B602984219013A1378172BD4D0052000F0C8FCD0E7308000F0BAFA0527381C07B0F0BD0C010020AF
:4003800000B5FEE770B50F490F4A01394B1C14D0506895681468031C1E1AAE4202D040CC40C3F9E7D0681D1C5C1B844202D0002640C3F9E710320139E8E700F043FDFFF715
:4003C0004DFFFEE701000000100F000008B500239A00032B02D80D48815800E00C490D4801338150302BF3D1FFF718FE0A490B4B086800221A60002800D108608022D305B2
:40040000186801210843186008BDC046000000008103000000000020C0000020C80000200047000038B5041C013806280BD800F0FFFC2406260F11080400174820E0174B5A
:4004400009E0174B07E0002000F04AFC002302E0144B00E0144B5A78187800021043022C04D0032C07D0012C15D104E0040A0302234398B20FE000BA0DE00C4800E00C48BA
:40048000C578817842780378180628430D02284311040843E3E738BDD87F0000C57F0000D47F0000D27F0000D67F0000C17F0000C97F000038B50220FFF7B4FF051C032097
:4004C000FFF7B0FF6C1CE1010C180220FFF7AAFF0023421CD201191CA24209D21078451EEDB2FD2D00D80121C318DBB20132F3E705485B420578DCB2AC4201D0062002E0E1
:400500000029FBD0002038BDC07F0000F0B5A34CA544FFF7BFFE62B600250095002603AF962124A849003A1CFF23FFF7C9FE0028F5D139880423062967D924AA1478012CCC
:4005400063D193236B4492221F786A4413783C021C4324AF3A19177953790197E71D9C4603238F4251D89179042317294DD1E3189BB2002B08D0BAAA8949D7187A18177881
:40058000013BC01980B2F3E762464042019F110282B239430823914237D168E0342900D09AE0012D00D0F6E0032C00D0F3E06FA80021802200F075FC80266FA9881935190A
:4005C0002639E21EFF39AEB200F062FC832E00D0DAE0BC797979009F26020E43002F0AD1391C802204A800F05CFCFF2004A900F0D7FA01200090301C6FA900F0D1FA0125C4
:40060000002800D1C3E000260A23002168469130012703706A4624AC6B4692330E32277000200F1D197058701180BBB25C4FBAACE418E4192778013BC0199BB280B2002BD0
:40064000F4D14442A0B2BAAF564C7B181F19564C38701F19554C000A38701B19172707311F7089B224A89623FFF71CFE57E724AF79783B79081C31380A2801D90523C4E707
:4006800000F0CCFB0611FC8C2FFC32428C507800012D00D07FE0002C7DD1FFF70BFF434243413B7163E0012D75D1012C73D1002B71D13F4A25A8146821889524CF0907704D
:4006C0003A0A97209627FF216C446F446844397022700370042199E7012D5CD1022C5AD96BE7012D57D119E7012D54D19620371943009F424DD86FAA901925A9221C00F0FC
:40070000C7FBBEB2002380E7002C44D104AB294A191CA0CAA0C125AF21CB21C708210125231C73E7012D36D1032C34D196226A449521177869440C7838021A02204387186D
:40074000FF01002280210139CC5D1219D2B20029F9D1002B08D1FF2806D1174B174918780C78171A3A1BD2B2504224AB1871002301214BE7FFF79EFE002802D110488024E5
:40078000046000F0AFFA06E00125002601E0061CB8E7032339E7042337E7C04614FDFFFFA7FDFFFFACFDFFFFADFDFFFFAEFDFFFFD4000020E40E0000D07F0000D17F0000A9
:4007C000C0000020144810B50368002219680B1C013BBF2B03D01C781219D2B2F8E740680478A21AD3B2A34201D1002902D1002000F076FAFFF75EFE084C2168221C40293A
:4008000001D0002803D000231360FFF77FFE8020206000F067FA10BDD4000020C000002008B50B4B10201A680A49024000D10A600B68802B0BD1002201200A60FFF7F2FDB0
:40084000002804D00120FFF7EDFDFFF7E9FD08BD00030B40C000002008B5054B802219681006084318600A2000F026FA08BDC0460000064010B5054C2378002B03D100F0B8
:40088000BFF801202070FFF7E7FF10BD10010020094B00B51968094B1A6891420AD019684A1C4039481E8141484205490240885C1A6000E0002000BDAC010020240100201A
:4008C00068010020064B074A1B68116800B58B4202D31268981A02E010684133181A00BDAC010020240100200C4A0D4B002130B5106811601D68802464022C431C601D68E3
:40090000084C2C401C60084B084C1D68084B25601970084D08492960106030BDC80F064004030640FFFFFEFF24010020AC010020A9010020C00F0640ED0F0000124910B5F0
:400940000A68531C3F3A541EA241544223400F4A1468A342FBD00C681268944208D10C4C0F2224682240082A02D00A4A10600AE0094C02222260094CC0B2E0540B60084BD0
:4009800019680A431A6010BD200100201C0100200802064040020640800F064028010020880F064038B5041C4518AC4204D02078FFF7C4FF0134F8E738BD00000B4A0023D3
:4009C000116810B513600A4B80201C684002204318601C68074820401860074B07481C68022399430460116010BDC046880F064004020640FFFFFEFF1C0100202001002095
:400A00001D4A1E4B1E4810B51E4900241A60046001221D4B1D480A601D490360072008601C491D4804600A601C4A0A2013601C4B1C6000F04BF90A20032100F01DF9194938
:400A40000A2000F00DF918481849194A194B04600C60146018491C60184A194B04200860146018481C601849184A194B04600C7014601C6010BDC0460B00000200000640EE
:400A80004000064048000640070000800003064004030640440006401003064000020640040206403D0D0000880E0640C80E0640480F0640080F0640C80F0640880F064058
:400AC000AC01002024010020A9010020200100201C0100200E4B8422D00418601968802250020843186019680A481960C3239A00094B026000210948094A196009490A4BB2
:400B000010600A4A19600A4910601C20086070470001054024010540380105401027000014010540881300000C010540080105402801054008B500F02CF8044B01211A682E
:400B40000A431A6000F029F808BDC0460000054010B5054C2378002B03D1FFF7BBFF01202070FFF7E7FF10BD18010020024B18680106C80F7047C0460400044000000000EA
:400B80000230800804D0C0460138FDD1C046C0467047EFF3108072B6704780F310887047F0B50023A7B0071C0193FF2845D8994243D0244A244C04AE26607F25049206A8BE
:400BC0008022756000F064F9204D214929602B68002BFCDB2068A0210290029A0B069A4201D1002004E00298020F0F2A02D10920019003E021680B0F0A2BFBD1019A002A45
:400C00001DD12660134E3F0437430497FFF7C1FF1149124A0B6803932A602F68002FFCDB039DA0260D60FFF7B8FF2468310602940298884203D0029800E001200190019816
:400C400027B0F0BDB6D70000080000400400004004000080B6D8000008010B400500008000B51F2800D901BE024A800083181868196000BD4000002038B5041C0D1E032D73
:400C800000D901BE1F2C00D901BEFFF782FFA308084A99008B1803221440944019680634A2409143A5400C1C2C431C60FFF775FF38BDC04600E400E01F231840024A012122
:400CC000814011607047C04600E100E01F231840024A0121814011607047C04680E100E001BE7047034B04491A6890B2084318607047C0460CED00E00400FA0510B5041CF6
:400D00008022074B1002844205D91868FFF738FF04496418F4E758686043FFF731FF10BDDC0000200080FFFF08B5034B197A4843FFF726FF08BDC046DC000020264B10B5A7
:400D40001868002800D0804724490A6852071DD5234C23681A0716D0224B234A186811684B1C40394C1EA1414C42204923400C68A34203D11E4B20221A70E9E71D49C0B2A6
:400D8000C8541360E4E71C49042008601B4A1468A20720D51A4B0F2118680140082917D0184A194B1468186884420CD01C68621C3F3C601E8441614214480A40845C144951
:400DC0000C601A60E6E7134C022122688A432260114B0220186010BD14010020CC0F06400803064040030640AC01002024010020A901002068010020C00F06408C0F064097
:400E000008020640200100201C0100202801002040020640880F0640800F064002B4714649084900095649008E4402BC7047C04602B4714649084900095C49008E4402BC20
:400E40007047C04670B50E4B0E4D0024E81A85101E1CAC4204D0A100725890470134F8E700F044F80849094A0E1C541AA5100024AC4204D0A300F05880470134F8E770BDD9
:400E8000F80E0000F80E0000F80E0000000F000010B50023934203D0CC5CC4540133F9E710BD00B58218031C934202D019700133FAE700BD400F0000D100000000000000D0
:400EC00001330F4003410F4004430F4002600F40E61062048E04D84018808C40C608E608020111019311C80411140101F8B5C046F8BC08BC9E46704725020000CD03000006
:400F0000F8B5C046F8BC08BC9E467047FD010000200F0000D000002020000000C000000000000000B40E0000B80E00000000E02EC05D00001800000000366E01000000007E
:400F40000000000000000000000000000000000000000000000000000000000000000000000000000000000000000000000000000000000000000000000000000000000071
:400F800000100020910F0000311300003113000080B500AF024B83F3088800F0CDF9C0460010002080B584B000AF021CFB1D1A70224A3B1C0B3312781A70214A3B1C0A33CA
:400FC00012781A701F4B1B68013BFB601AE01E4B1868391C0B31FA68131C5B009B18C31801331B780B70184B1868391C0A31FA68131C5B009B18C31802331B780B70FB6896
:40100000013BFB60FB68002B0ADB0F4B1968FA68131C5B009B185B5CFA1D12789A42D6D90A4B3A1C0B3212781A60094B3A1C0A3212781A60BD4604B080BDC046CCF1FF0FAE
:40104000CDF1FF0FE81C0000D40000201CFF0B4020FF0B4080B500AF1C4B1C4A12688021C9020A431A600320FFF79CFF184B03221A60052000F040FA164B174A1278D2B2A9
:401080001A60052000F048FA104B104A1168134A0A401A60124B10221A60124B30221A60114B20221A60114B802212061A60104B802212061A600F4B0F4A1A600F4B0E4AC8
:4010C0001A600F4B0C4A1A60BD4680BD00010B402CFF0B4028FF0B40D0F1FF0FFFFFFBFF34020240380202403C02024008010B4004010B4000000240B70B008040000240F3
:401100008000024080B582B000AF72B6FB1D00221A7023E0FB1D1A78131C5B009B185B00364A9B183B603B681A78597809020A43997809040A43DB781B0613431A1C3B686C
:4011400019795B791B020B439BB2101C191C00F07FF9FB1DFA1D127801321A70FB1D1B78012BD7D9264A274B101C191C00F080F9254B264A1A60264B264A1A60264BEE22A9
:4011800012021A60254BD0221A60254B254A1A60254B0A221A60254BC32212011A60244BD82212011A60234B992212041A60224B8622D2051A60214B992212041A60204B3D
:4011C000842212041A601F4B992212041A601E4B1D4A1278D2B202210A43D2B21A701A4B194A1278D2B206210A43D2B21A70FFF731FF00F07DF9BD4602B080BDB01A000008
:40120000BC1A0000E41A0000040001400000033308000140303000000C00014000010440080104400060D80000020440080204400803044010500F4018500F4020500F4097
:4012400028500F4030500F4000700F4010B5064C2378002B07D10548002802D0044800E000BF0121217010BDE800002000000000AC1A000008B5084B002B03D00748084936
:4012800000E000BF07480168002903D0064A002A00D0904708BDC04600000000AC1A0000EC000020D00000200000000080B582B000AF00F045F900F0EBFA00F00BFAFB1D07
:4012C00001221A70BB1D01221A707B1D01221A703B1D01221A70FB1C01221A70FB1D1B7864225343DBB2181C00F0BAF9BB1D1B7864225343DBB2181C00F080FAFB1C1B7827
:4013000064225343DBB2181C00F088FA3B1D1B7864225343DBB2181C00F05EFB7B1D1B7864225343DBB2181C00F046FBD6E7C04680B500AFFEE7C04680B586B000AF254BF8
:401340007B61254B3B61234B7B61234B3B6132E03B691B68FB603B695B68BB603B699B683B6000237B600CE0FB681A68BB681A60BB680433BB60FB680433FB607B680433E9
:401380007B607A683B689A42EED13B69DB683B6000237B6008E0BB6800221A60BB680433BB607B6804337B607A683B689A42F2D13B6910333B617B695A1E9341DBB27A695A
:4013C000013A7A61002BC3D100F040FBFFF76EFFFEE7C04601000000101D000080B582B000AF00237B600FE07B68032B04D8134B7A689200D35800E0114B124A7968890082
:401400008B507B6801337B607B682F2BECD9FFF779FE0D4B00221A600C4B1B68002B02D10A4B00221A608023DB058022D205126801210A431A60BD4602B080BD800F0000D3
:401440003113000000000020C8000020C000002080B582B000AF786039607A683B68101C00211A1C00F018FBBD4602B080BDC04680B586B000AF7860396000233B61002349
:401480007B612EE07B699B007A68D3181B68BB603B1C0F33BA681A70BB68FF229343BB6017E03B695B003A68D3181B781A1CBB68D3183A69520039688A1852781A703B6954
:4014C00001333B613B1C0F333A1C0F321278013A1A703B1C0F331B78002BE2D17B6901337B617B69092BCDD9BD4606B080BDC04680B500AFBD4680BD0230800804D0C0462D
:401500000138FDD1C046C0467047EFF3108072B6704780F31088704780B582B000AF021CBB1D1A80BB1D1B88044A12785343181CFFF7E2FFBD4602B080BDC046E00000203C
:4015400080B500AF064B1B78002B04D100F00AF8034B01221A7000F045F8BD4680BDC0460401002090B583B000AF1C4B1B78DAB2FB1D3F218A431A70184BFA1D1278092174
:401580000A43D2B21A70164B154A1278D2B201210A43D2B21A70FF2000F034F8FF2000F04FF87F2000F05CF8002000F069F8BC1DFFF7ABFF031C2370094B094A1278D2B2C0
:4015C00010210A43D2B21A70BB1D1B78181CFFF7A0FF00F027F8BD4603B090BD72000F4092000F4080B500AF054B054A1278D2B2802149420A43D2B21A70BD4680BDC04619
:4016000072000F4080B582B000AF021CFB1D1A70034BFA1D12781A70BD4602B080BDC04602000F4080B500AF01E000F049F800F037F8031C1A1C10231340F6D1BD4680BD5A
:4016400080B582B000AF021CFB1D1A70034BFA1D12781A70BD4602B080BDC04642000F4080B582B000AF021CFB1D1A70034BFA1D12781A70BD4602B080BDC04622000F40DA
:4016800080B582B000AF021CFB1D1A70034BFA1D12781A70BD4602B080BDC04682000F4080B582B000AF054AFB1D12781A70FB1D1B78181CBD4602B080BDC04662000F40F9
:4016C00080B500AF024B1B78DBB2181CBD4680BD52000F4080B500AF064B1B78002B04D100F00AF8034B01221A7000F049F8BD4680BDC0460501002090B583B000AF1E4BA2
:401700001B78DAB2FB1D3F218A431A701A4BFA1D127809210A43D2B21A70184B174A1278D2B201210A43D2B21A70FF2000F038F8FF2000F053F87F2000F060F83F2000F012
:401740006DF8002000F07AF8BC1DFFF7DEFE031C23700A4B094A1278D2B210210A43D2B21A70BB1D1B78181CFFF7D3FE00F028F8BD4603B090BDC04673000F4093000F40C0
:4017800080B500AF054B054A1278D2B2802149420A43D2B21A70BD4680BDC04673000F4080B582B000AF021CFB1D1A70034BFA1D12781A70BD4602B080BDC04603000F4070
:4017C00080B500AF01E000F059F800F047F8031C1A1C10231340F6D1BD4680BD80B582B000AF021CFB1D1A70034BFA1D12781A70BD4602B080BDC04643000F4080B582B092
:4018000000AF021CFB1D1A70034BFA1D12781A70BD4602B080BDC04623000F4080B582B000AF021CFB1D1A70034BFA1D12781A70BD4602B080BDC04633000F4080B582B026
:4018400000AF021CFB1D1A70034BFA1D12781A70BD4602B080BDC04683000F4080B582B000AF054AFB1D12781A70FB1D1B78181CBD4602B080BDC04663000F4080B500AFB8
:40188000024B1B78DBB2181CBD4680BD53000F4080B500AF064B1B78002B04D100F00AF8034B01221A7000F049F8BD4680BDC0460601002090B583B000AF1E4B1B78DAB2A3
:4018C000FB1D3F218A431A701A4BFA1D127809210A43D2B21A70184B174A1278D2B201210A43D2B21A70FF2000F038F8FF2000F053F87F2000F060F83F2000F06DF80020EB
:4019000000F07AF8BC1DFFF700FE031C23700A4B094A1278D2B210210A43D2B21A70BB1D1B78181CFFF7F5FD00F028F8BD4603B090BDC04670000F4090000F4080B500AF62
:40194000054B054A1278D2B2802149420A43D2B21A70BD4680BDC04670000F4080B582B000AF021CFB1D1A70034BFA1D12781A70BD4602B080BDC04600000F4080B500AFB4
:4019800001E000F059F800F047F8031C1A1C10231340F6D1BD4680BD80B582B000AF021CFB1D1A70034BFA1D12781A70BD4602B080BDC04640000F4080B582B000AF021CEA
:4019C000FB1D1A70034BFA1D12781A70BD4602B080BDC04620000F4080B582B000AF021CFB1D1A70034BFA1D12781A70BD4602B080BDC04630000F4080B582B000AF021C6B
:401A0000FB1D1A70034BFA1D12781A70BD4602B080BDC04680000F4080B582B000AF054AFB1D12781A70FB1D1B78181CBD4602B080BDC04660000F4080B500AF024B1B78E9
:401A4000DBB2181CBD4680BD50000F4070B50E4B0E4D0024E81A85101E1CAC4204D0A100725890470134F8E700F040F90849094A0E1C541AA5100024AC4204D0A300F058F5
:401A800080470134F8E770BDF81C0000F81C0000F81C0000001D000000B58218031C934202D019700133FAE700BD00000000000000300F40000400400F40000403000F40ED
:401AC00039300F4029310F4051320F4035330F4003400F4009410F4003420F4005430F4002600F40802F822D832F08080F011104120315081B072A0D300131023204330454
:401B000034023508360837013F104020410545D246504721483B49FF4AFF4BFF4DA04F04501852805427580459045A045B045C335D335F01604062C06440654066C068C011
:401B40006AC06CC06EC09001AC02B202B401B802B902BE14D804D904DC21DF0100100A400E8010081780181019421A041D101E801F04212022012322278031083201332027
:401B80003B40420448024905500A532059455B2061207240734085028F02C002C218C482CC07CE08D004D208D60FD804E2100F0414011D011E0723072E0C30013202330194
:401BC00034083504360437024020410545D046024710482649FF4AFF4BFF4DA04F04501852805425580459045A045B045C125D225F01604062C06440654066C068C06AC021
:401C00006CC06EC088089203A60DB008B204B402B601B908C020C106C5D2C615C702C81FC9FFCAFFCBFFCDA0CF04D018D280D427D804D904DA04DB04DC31DD11DF01E040CC
:401C4000E2C0E440E540E6C0E8C0EAC0ECC0EEC000100B400E200F021020174018121A441D201EA01F80210826A027102C8036803F4042044520480849054D014F8050A87F
:401C8000574159055A405B105D015E805F0861106708734077408001834887808E2093089910A508C002C2A8C484CA80CC10CE10D024D214D6DFD824E40486028E01E61052
:401CC0005E026302660287019A02A201D6C0D880E61057205A80D40383208E409680A720E008010E100E000004000000F8B5C046F8BC08BC9E46704775120000DD13000040
:401D0000F8B5C046F8BC08BC9E4670474D120000201D0000D0000020180000002000000000000000C0F1FF0FC0C62D00B80B0000030000000000DC05000000000000000000
:401D40000000000000000000000000000000000000000000000000000000000000000000000000000000000000000000000000000000000000000000000000000000000063
:401D80000000000000000000000000000000000000000000000000000000000000000000000000000000000000000000000000000000000000000000000000000000000023
:401DC00000000000000000000000000000000000000000000000000000000000000000000000000000000000000000000000000000000000000000000000000000000000E3
:401E000000000000000000000000000000000000000000000000000000000000000000000000000000000000000000000000000000000000000000000000000000000000A2
:407FC00040910F00001E000000000E000000000000000100000001000000000000000000000000000000000000000000000000000000000000000000000000000000000073
:0200000490303A
:020000007CC8BA
:0200000490402A
:20000000FFFF010000000000000000000000000000000000000000000000000000000000E1
:0200000490501A
:0C000000000204C81193110004D18E5BB3
:0200000490600A
:0100000001FE
:00000001FF